:020000040800F2
:1000000000280020A5160008A9140008AF14000855
:10001000B5140008BB140008C1140008000000005B
:10002000000000000000000000000000C7140008ED
:10003000D314000800000000DF140008EB140008CF
:10004000ED160008ED160008ED160008ED16000884
:10005000ED160008ED160008ED160008ED16000874
:10006000ED160008ED160008ED160008ED16000864
:10007000ED160008ED160008ED160008ED16000854
:10008000ED160008ED160008ED160008ED16000844
:10009000ED160008ED160008ED160008ED16000834
:1000A000ED160008ED160008ED160008ED16000824
:1000B000F9140008ED16000800000000ED16000815
:1000C000ED1600080000000000000000ED1600081A
:1000D00000000000ED160008ED160008000000000A
:1000E000ED160008ED160008ED16000800000000EF
:1000F0000000000000000000000000000000000000
:0C01000000000000000000005FF808F1A3
:10010C0010B5054C237833B9044B13B10448AFF345
:10011C0000800123237010BD1C0000200000000093
:10012C00442D000808B5034B1BB103490348AFF33A
:10013C00008008BD0000000020000020442D0008B5
:10014C0080B400AF0C4B14221A600C4B03221A60C3
:10015C000B4B11221A60084B1B680A4A13600A4B9E
:10016C001B68094A1360064B1B68084A136000BFE2
:10017C00BD4680BC704700BF80000020940000206A
:10018C008C000020840000209000002088000020BB
:10019C0080B500AF164B1B78002B02D0012B18D06A
:1001AC0024E0002000F046FA0346002B1BD0104B35
:1001BC0001221A700F4B1B6801330E4A13600D4B52
:1001CC001B68042B0FDD0B4B01221A6000F042FC64
:1001DC0009E0002000F02EFA0346002B05D1044B59
:1001EC0000221A7001E000BF00E000BF00BF80BD1C
:1001FC00380000200000002080B400AF1E4B1B68AC
:10020C00042B20D0042B2BDC022B02D0032B0DD083
:10021C0026E01A4B1B680133184A1360174B1B68F6
:10022C00632B1FDD154B00221A601BE0144B1B685F
:10023C000133134A1360124B1B68632B14DD104BF4
:10024C0000221A6010E00F4B1B6801330D4A13603B
:10025C000C4B1B68632B09DD0A4B00221A6005E06E
:10026C0000BF04E000BF02E000BF00E000BF00BF21
:10027C00BD4680BC704700BF0000002084000020F9
:10028C00900000208800002080B483B000AF0023D1
:10029C007B602B4B1B68042B34D0042B49DC022BCA
:1002AC0002D0032B17D044E0264B1A68264B1B6850
:1002BC00D31A7B60234B1B68234A1360234B1A68A9
:1002CC007B681344214A1360214B1A687B681344E2
:1002DC001F4A13602EE01F4B1A681F4B1B68D31A62
:1002EC007B601C4B1B681C4A1360174B1A687B689D
:1002FC001344154A1360134B1A687B681344114A54
:10030C00136017E0124B1A68104B1B68D31A7B60F2
:10031C000F4B1B680D4A13600C4B1A687B68134417
:10032C000A4A13600A4B1A687B681344084A136024
:10033C0000E000BF00BF0C37BD4680BC704700BF5B
:10034C000000002084000020800000208C00002091
:10035C0088000020900000209400002080B500AFA1
:10036C00344B5B78022B27D0022B3ADC002B02D0CB
:10037C00012B0CD035E0012000F05CF90346002B7A
:10038C0031D02C4B01225A70FFF736FF2BE00120A5
:10039C0000F050F90346002B02D1264B00225A7074
:1003AC00012000F061F90346002B1ED0214B0222E4
:1003BC005A70FFF721FF18E0012000F03BF90346CB
:1003CC00002B02D11B4B00225A70012000F066F961
:1003DC000346002B0BD0012000F07AF9FFF70CFF3D
:1003EC0005E000BF04E000BF02E000BF00E000BF7A
:1003FC00104B9B78002B02D0012B0CD018E0022064
:10040C0000F018F90346002B0FD00A4B01229A700A
:10041C00FFF73AFF09E0022000F00CF90346002B2D
:10042C0005D1044B00229A7001E000BF00E000BF30
:10043C0000BF80BD3800002080B483B000AF002323
:10044C007B602AE0194A7B68134401221A70184A0F
:10045C007B68134401221A70164A7B6813440122EC
:10046C001A70154A7B68134401221A70134A7B6870
:10047C00134400221A70124A7B68134400221A702B
:10048C00104A7B68002122F813100F4A7B68002168
:10049C0022F813107B6801337B607B68022BD1DD63
:1004AC0000BF00BF0C37BD4680BC70473C0000202D
:1004BC004000002044000020480000204C00002098
:1004CC0058000020500000205C00002080B582B055
:1004DC0000AF00237B6092E04D4A7B68134419788F
:1004EC004C4A7B6813440A461A704B4A7B68134487
:1004FC001978474A7B6813440A461A7001227B68B4
:10050C0002FA03F39BB21946444801F0D5FB0346AB
:10051C001946414A7B6813440A461A703E4A7B6866
:10052C0013441A783A497B680B441B789A4212D1CF
:10053C00384A7B6813441A7835497B680B441B781E
:10054C009A4208D1344A7B6813441978344A7B6840
:10055C0013440A461A70324A7B6813441B78002BEA
:10056C0036D1304A7B6832F81330C72B0AD82D4A63
:10057C007B6832F81330013399B22A4A7B6822F82F
:10058C00131039E0284A7B68134401221A70274A59
:10059C007B6832F81330312B2ED8244A7B6832F822
:1005AC001330013399B2214A7B6822F813101F4A89
:1005BC007B6832F81330312B1ED91C4A7B68002122
:1005CC0022F813101A4A7B68134401221A7013E0A4
:1005DC00144A7B68002122F81310134A7B681344D9
:1005EC0000221A70114A7B68002122F81310104A5D
:1005FC007B68134400221A707B6801337B607B6834
:10060C00022B7FF769AF00BF00BF0837BD4680BD26
:10061C00440000204800002040000020000C014055
:10062C003C000020500000204C0000205C0000200A
:10063C005800002080B483B000AF0346FB71FB79F7
:10064C00022B01D9002307E0FB79064AD35C002B6F
:10065C000CBF01230023DBB218460C37BD4680BC0F
:10066C00704700BF3C00002080B483B000AF03464D
:10067C00FB71FB79022B01D9002307E0FB79064AB9
:10068C00D35C012B0CBF01230023DBB218460C37C3
:10069C00BD4680BC704700BF4C00002080B483B0C6
:1006AC0000AF0346FB71FB79022B01D9002307E055
:1006BC00FB79064AD35C012B0CBF01230023DBB270
:1006CC0018460C37BD4680BC704700BF5800002050
:1006DC0080B483B000AF7860044A7B681344002276
:1006EC001A7000BF0C37BD4680BC70475800002004
:1006FC0080B582B000AF78607B68092B00F28081F6
:10070C0001A252F823F000BF3D070008850700083E
:10071C00CD070008150800085D080008A5080008AA
:10072C00ED080008350900087D090008C509000816
:10073C0000220221C64801F0D6FA00220421C44846
:10074C0001F0D1FA00220821C14801F0CCFA0022B4
:10075C001021BF4801F0C7FA00222021BC4801F04B
:10076C00C2FA00224021BA4801F0BDFA01228021D0
:10077C00B74801F0B8FA67E101220221B44801F050
:10078C00B2FA00220421B24801F0ADFA002208218D
:10079C00AF4801F0A8FA01221021AD4801F0A3FAEC
:1007AC0001222021AA4801F09EFA01224021A848EA
:1007BC0001F099FA01228021A54801F094FA43E155
:1007CC0000220221A24801F08EFA00220421A04846
:1007DC0001F089FA012208219D4801F084FA0022D7
:1007EC0010219B4801F07FFA00222021984801F04B
:1007FC007AFA01224021964801F075FA00228021F4
:10080C00934801F070FA1FE100220221904801F098
:10081C006AFA002204218E4801F065FA00220821B0
:10082C008B4801F060FA00221021894801F05BFA34
:10083C0001222021864801F056FA012240218448E9
:10084C0001F051FA00228021814801F04CFAFBE0C2
:10085C00012202217E4801F046FA002204217C4844
:10086C0001F041FA00220821794801F03CFA0122FA
:10087C001021774801F037FA01222021744801F049
:10088C0032FA00224021724801F02DFA0022802118
:10089C006F4801F028FAD7E0002202216C4801F0E1
:1008AC0022FA012204216A4801F01DFA00220821D3
:1008BC00674801F018FA00221021654801F013FA7C
:1008CC0001222021624801F00EFA002240216048EA
:1008DC0001F009FA002280215D4801F004FAB3E02E
:1008EC00002202215A4801F0FEF901220421584845
:1008FC0001F0F9F900220821554801F0F4F9002221
:10090C001021534801F0EFF900222021504801F04A
:10091C00EAF9002240214E4801F0E5F9002280213D
:10092C004B4801F0E0F98FE000220221484801F029
:10093C00DAF900220421464801F0D5F900220821F9
:10094C00434801F0D0F901221021414801F0CBF9C4
:10095C00012220213E4801F0C6F9012240213C48E9
:10096C0001F0C1F901228021394801F0BCF96BE09A
:10097C0000220221364801F0B6F900220421344845
:10098C0001F0B1F900220821314801F0ACF9002244
:10099C0010212F4801F0A7F9002220212C4801F04A
:1009AC00A2F9002240212A4801F09DF90022802161
:1009BC00274801F098F947E000220221244801F071
:1009CC0092F900220421224801F08DF9002208211D
:1009DC001F4801F088F9002210211D4801F083F90D
:1009EC00012220211A4801F07EF9002240211848EA
:1009FC0001F079F900228021154801F074F923E007
:100A0C0001220221124801F06EF901220421104842
:100A1C0001F069F9012208210D4801F064F9012265
:100A2C0010210B4801F05FF901222021084801F048
:100A3C005AF901224021064801F055F90122802182
:100A4C00034801F050F900BF00BF0837BD4680BD18
:100A5C000008014080B400AF084B1B68084A1360C3
:100A6C00084B1B68084A1360084B00221A70084B8D
:100A7C0002221A7000BFBD4680BC70478000002067
:100A8C00040000208C0000200800002062000020E0
:100A9C000C00002080B500AFAB4B1B68013BAA4A91
:100AAC001360AA4B1B68013BA84A1360A84B1B7828
:100ABC00022B69D0022B00F39880002B02D0012B63
:100ACC0031D092E000224FF48071A24801F00BF972
:100ADC0001224FF400719F4801F005F901224FF4F7
:100AEC0080619C4801F0FFF8974B1B68002B7EDA65
:100AFC00994B1B68013B944A1360954B02221A7068
:100B0C0001224FF48071934801F0EDF801224FF46B
:100B1C000071904801F0E7F800224FF480618D4895
:100B2C0001F0E1F863E001224FF48071894801F093
:100B3C00DAF800224FF40071864801F0D4F8012253
:100B4C004FF48061834801F0CEF87F4B1B68002B7B
:100B5C004FDA824B1B68013B7B4A13607C4B0022B3
:100B6C001A7000224FF480717A4801F0BCF801220F
:100B7C004FF40071774801F0B6F801224FF4806110
:100B8C00744801F0B0F834E001224FF480717148E0
:100B9C0001F0A9F801224FF400716E4801F0A3F89E
:100BAC0000224FF480616B4801F09DF8664B1B6886
:100BBC00002B20DA6A4B1B68013B634A1360644BC1
:100BCC0001221A7001224FF48071624801F08BF8F7
:100BDC0000224FF400715F4801F085F801224FF4B8
:100BEC0080615C4801F07FF805E000BF04E000BFC5
:100BFC0002E000BF00E000BF5A4B1B78022B69D00B
:100C0C00022B00F39880002B02D0012B31D092E004
:100C1C0000224FF400614F4801F065F801224FF4B7
:100C2C0080514C4801F05FF801224FF400514948C3
:100C3C0001F059F8454B1B68002B7EDA464B1B68BC
:100C4C00013B424A1360474B02221A7001224FF4B7
:100C5C000061404801F047F801224FF480513D48B3
:100C6C0001F041F800224FF400513A4801F03BF8F2
:100C7C0063E001224FF40061364801F034F80022A1
:100C8C004FF48051334801F02EF801224FF40051FB
:100C9C00304801F028F82D4B1B68002B4FDA2F4BF6
:100CAC001B68013B294A13602E4B00221A7000224C
:100CBC004FF40061274801F016F801224FF48051DF
:100CCC00244801F010F801224FF40051214801F0A2
:100CDC000AF834E001224FF400611E4801F003F8D9
:100CEC0001224FF480511B4800F0FDFF00224FF40D
:100CFC000051184800F0F7FF144B1B68002B20DA4A
:100D0C00174B1B68013B114A1360164B01221A70DA
:100D1C0001224FF400610F4800F0E5FF00224FF470
:100D2C0080510C4800F0DFFF01224FF400510948BC
:100D3C0000F0D9FF05E000BF04E000BF02E000BFF7
:100D4C0000E000BF00BF80BD0400002008000020B0
:100D5C0062000020000C01408C000020800000206C
:100D6C00940000200C00002080B400AF104B1B68D6
:100D7C00013B032B16D801A252F823F0990D000861
:100D8C009F0D0008A50D0008AB0D0008094B1B6852
:100D9C000AE0094B1B6807E0084B1B6804E0084B92
:100DAC001B6801E000BF00231846BD4680BC70479D
:100DBC00000000200400002084000020900000208F
:100DCC008800002080B400AF104B1B68013B032B44
:100DDC0016D801A252F823F0F50D0008FB0D0008FF
:100DEC00010E0008070E0008094B1B680AE0094BAE
:100DFC001B6807E0084B1B6804E0084B1B6801E00C
:100E0C0000BF00231846BD4680BC70470000002080
:100E1C0008000020840000209000002088000020A2
:100E2C0080B500AF7E4B1B68042B00F2F68001A24C
:100E3C0052F823F0550E0008B10E0008170F0008E9
:100E4C00730F0008D90F000800224FF48051754829
:100E5C0000F049FF00224FF40061724800F043FF9C
:100E6C0000224FF480616F4800F03DFF00224FF4E8
:100E7C0000716C4800F037FF01224FF48071694813
:100E8C0000F031FFFFF770FF0346674A82FB031245
:100E9C009210DB17D31A1846FFF72AFC604B01227D
:100EAC001A60BBE000224FF480715E4800F01BFF1B
:100EBC0000224FF480515B4800F015FF00224FF4E4
:100ECC000061584800F00FFF00224FF48061554834
:100EDC0000F009FF01224FF40071524800F003FFAB
:100EEC00FFF742FF0146504B83FB01239A10CB17AF
:100EFC00D21A13469B0013445B00CA1A1046FFF724
:100F0C00F7FB474B02221A6088E000224FF4007175
:100F1C00444800F0E8FE00224FF48071414800F094
:100F2C00E2FE00224FF480513E4800F0DCFE00222D
:100F3C004FF400613B4800F0D6FE01224FF4806173
:100F4C00384800F0D0FEFFF73DFF0346364A82FBDF
:100F5C0003129210DB17D31A1846FFF7C9FB304B5C
:100F6C0003221A605AE000224FF480612D4800F0F1
:100F7C00BAFE00224FF400712A4800F0B4FE0022A1
:100F8C004FF48071274800F0AEFE00224FF48051E0
:100F9C00244800F0A8FE01224FF40061214800F023
:100FAC00A2FEFFF70FFF01461F4B83FB01239A1094
:100FBC00CB17D21A13469B0013445B00CA1A104677
:100FCC00FFF796FB164B04221A6027E000224FF421
:100FDC000061144800F087FE00224FF48061114834
:100FEC0000F081FE00224FF400710E4800F07BFEF1
:100FFC0000224FF480710B4800F075FE01224FF473
:10100C008051084800F06FFE084B1B681846FFF72C
:10101C006FFB034B00221A6000E000BF00BF80BDD5
:10102C00640000200008014067666666000000202E
:10103C0080B500AF554B1B68013B032B00F29A8027
:10104C0001A252F823F000BF651000087F100008C1
:10105C00D51000082B11000800F0EEFA0346002B07
:10106C0000F08A804FF47A7000F050FAFFF712FD0E
:10107C0082E000F0E1FA0346002B7FD0FA2000F06A
:10108C0045FA4FF48071424800F045FE4FF4006180
:10109C003F4800F040FE01224FF400713C4800F044
:1010AC0022FE01224FF48061394800F01CFE01221F
:1010BC004FF48051364800F016FE01224FF40051D7
:1010CC00334800F010FE59E000F0B6FA0346002B4E
:1010DC0056D0FA2000F01AFA4FF400712C4800F0A8
:1010EC001AFE4FF480512A4800F015FE01224FF4ED
:1010FC008071274800F0F7FD01224FF480612448ED
:10110C0000F0F1FD01224FF40061214800F0EBFDED
:10111C0001224FF400511E4800F0E5FD30E000F0D4
:10112C008BFA0346002B2DD0FA2000F0EFF94FF488
:10113C008061174800F0EFFD4FF40051144800F0A7
:10114C00EAFD01224FF40071114800F0CCFD0122A0
:10115C004FF480710E4800F0C6FD01224FF480510F
:10116C000B4800F0C0FD01224FF40061084800F06C
:10117C00BAFD07E000BF06E000BF04E000BF02E0DC
:10118C0000BF00E000BF00BF80BD00BF000000201A
:10119C00000C014080B500AF00F0A4FA00F038F864
:1011AC0000F0BEF800F070F8174801F005FAFFF7F0
:1011BC0043F9FEF7C5FF0A2000F0A8F90A2000F059
:1011CC00C1F90A2000F0DAF9FEF7E2FF00F048FA64
:1011DC000346002B04D0FFF723FE0A2000F0CEF9C3
:1011EC00FFF726FFFFF7BAF800F030FA0346002BA2
:1011FC00EAD04FF40041054800F08DFD4FF4FA7031
:10120C0000F0A0F9E0E700BF9800002000080140C2
:10121C0080B590B000AF07F11803282200211846C2
:10122C0001F082FD3B1D00221A605A609A60DA6060
:10123C001A610223BB610123BB621023FB620023F2
:10124C007B6307F11803184600F07EFD0346002B64
:10125C0001D000F0C7F80F237B600023BB60002394
:10126C00FB6000233B6100237B613B1D0021184682
:10127C0000F0EAFF0346002B01D000F0B3F800BFEA
:10128C004037BD4680BD000080B586B000AF07F189
:10129C00080300221A605A609A60DA603B4600220A
:1012AC001A605A601D4B4FF080421A601B4B41F67E
:1012BC003F725A60194B00229A60184B0922DA606F
:1012CC00164B00221A61154B00229A61134801F04B
:1012DC0023F90346002B01D000F084F84FF480531F
:1012EC00BB6007F1080319460C4801F0B9FA034634
:1012FC00002B01D000F076F800233B6000237B60CC
:10130C003B461946054801F081FC0346002B01D0F1
:10131C0000F068F800BF1837BD4680BD980000206B
:10132C0080B586B000AF07F1080300221A605A603E
:10133C009A60DA60284B9B69274A43F00403936157
:10134C00254B9B6903F004037B607B68224B9B69F4
:10135C00214A43F0080393611F4B9B6903F0080378
:10136C003B603B68002249F6FF711C4800F0BBFC57
:10137C0000224FF47C511A4800F0B5FC49F6FF737B
:10138C00BB600123FB6000233B6102237B6107F1FF
:10139C0008031946114800F015FB0723BB60002316
:1013AC00FB6000233B6107F1080319460C4800F071
:1013BC0009FB4FF47C53BB600123FB6000233B61B2
:1013CC0002237B6107F108031946054800F0FAFA7D
:1013DC0000BF1837BD4680BD001002400008014018
:1013EC00000C014080B400AF72B600BFFEE70000F5
:1013FC0080B485B000AF154B9B69144A43F00103D0
:10140C009361124B9B6903F00103BB60BB680F4BEC
:10141C00DB690E4A43F08053D3610C4BDB6903F05C
:10142C0080537B607B680A4B5B68FB60FB6823F036
:10143C00E063FB60FB6843F08063FB60044AFB687D
:10144C00536000BF1437BD4680BC7047001002408B
:10145C000000014080B584B000AF78607B681B68E9
:10146C00B3F1804F13D10C4BDB690B4A43F00103F2
:10147C00D361094BDB6903F00103FB60FB680022BD
:10148C0000211C2000F067FA1C2000F080FA00BF3D
:10149C001037BD4680BD00BF0010024080B400AFC5
:1014AC00FEE780B400AFFEE780B400AFFEE780B487
:1014BC0000AFFEE780B400AFFEE780B400AF00BF22
:1014CC00BD4680BC704780B400AF00BFBD4680BC39
:1014DC00704780B400AF00BFBD4680BC704780B57C
:1014EC0000AF00F045F900BF80BD000080B500AF33
:1014FC00024801F0ADF800BF80BD00BF980000208D
:10150C0080B400AF00BFBD4680BC704780B483B0D0
:10151C0000AF78607B68084A82FB03129210DB17DD
:10152C00D31A064A1360064B00221A6000BF0C3710
:10153C00BD4680BC704700BF6766666668000020C9
:10154C006C00002080B483B000AF78607B68084AE0
:10155C0082FB03129210DB17D31A064A1360064B58
:10156C0000221A6000BF0C37BD4680BC704700BF1C
:10157C0067666666700000207400002080B483B03B
:10158C0000AF78607B68084A82FB03129210DB176D
:10159C00D31A064A1360064B00221A6000BF0C37A0
:1015AC00BD4680BC704700BF676666667800002049
:1015BC007C00002080B400AF194B1B68002B0BDDA6
:1015CC00174B1B68013B164A1360154B1B68002B0D
:1015DC0002D1144B01221A60134B1B68002B0BDD3C
:1015EC00114B1B68013B104A13600F4B1B68002BFF
:1015FC0002D10E4B01221A600D4B1B68002B0BDD28
:10160C000B4B1B68013B0A4A1360094B1B68002BF0
:10161C0002D1084B01221A6000BFBD4680BC704746
:10162C00680000206C000020700000207400002076
:10163C00780000207C00002080B400AF024B1B68B7
:10164C001846BD4680BC70476C00002080B400AFCB
:10165C00024B1B681846BD4680BC704774000020C6
:10166C0080B400AF024B1B681846BD4680BC704767
:10167C007C00002080B582B000AF7860FFF79AFF45
:10168C007B681B68B3F1804F01D1FEF71FFF00BFD1
:10169C000837BD4680BD00000C480D490D4A00239B
:1016AC0002E0D458C4500433C4188C42F9D30A4A0B
:1016BC000A4C002301E013600432A242FBD3FFF773
:1016CC001FFF01F00DFBFFF765FD704700000020C8
:1016DC001C000020842D00081C000020E4000020C9
:1016EC00FEE7000080B500AF084B1B68074A43F0CB
:1016FC0010031360032000F023F90F2000F008F80A
:10170C00FFF776FE0023184680BD00BF0020024084
:10171C0080B582B000AF7860124B1A68124B1B7800
:10172C0019464FF47A73B3FBF1F3B2FBF3F318469B
:10173C0000F03BF90346002B01D001230EE07B683F
:10174C000F2B0AD8002279684FF0FF3000F003F914
:10175C00064A7B681360002300E001231846083713
:10176C00BD4680BD10000020180000201400002091
:10177C0080B400AF054B1B781A46054B1B6813440D
:10178C00034A136000BFBD4680BC704718000020A0
:10179C00E000002080B400AF024B1B681846BD4629
:1017AC0080BC7047E000002080B485B000AF78604A
:1017BC007B6803F00703FB600C4BDB68BB60BA680B
:1017CC004FF6FF031340BB60FB681A02BB68134360
:1017DC0043F0BF6343F40033BB60044ABB68D3607F
:1017EC0000BF1437BD4680BC704700BF00ED00E061
:1017FC0080B400AF044BDB681B0A03F007031846E8
:10180C00BD4680BC704700BF00ED00E080B483B0E3
:10181C0000AF0346FB7197F90730002B0BDBFB790C
:10182C0003F01F02064997F907305B09012000FA03
:10183C0002F241F8232000BF0C37BD4680BC704734
:10184C0000E100E080B483B000AF03463960FB7167
:10185C0097F90730002B0ADB3B68DAB20C4997F991
:10186C0007301201D2B20B4483F800230AE03B6824
:10187C00DAB20849FB7903F00F03043B1201D2B230
:10188C000B441A7600BF0C37BD4680BC704700BFB6
:10189C0000E100E000ED00E080B489B000AFF8603A
:1018AC00B9607A60FB6803F00703FB61FB69C3F165
:1018BC000703042B28BF0423BB61FB690433062BED
:1018CC0002D9FB69033B00E000237B614FF0FF3240
:1018DC00BB6902FA03F3DA43BB681A407B699A408E
:1018EC004FF0FF317B6901FA03F3D9437B680B405E
:1018FC00134318462437BD4680BC704780B582B070
:10190C0000AF78607B68013BB3F1807F01D301238A
:10191C000FE00A4A7B68013B53600F214FF0FF3008
:10192C00FFF790FF054B00229A60044B07221A60C8
:10193C00002318460837BD4680BD00BF10E000E00C
:10194C0080B582B000AF78607868FFF72DFF00BFDC
:10195C000837BD4680BD80B586B000AF0346B96080
:10196C007A60FB7300237B61FFF742FF78617A6832
:10197C00B9687869FFF790FF024697F90F30114666
:10198C001846FFF75FFF00BF1837BD4680BD80B516
:10199C0082B000AF0346FB7197F907301846FFF78A
:1019AC0035FF00BF0837BD4680BD80B582B000AFA3
:1019BC0078607868FFF7A2FF034618460837BD46E3
:1019CC0080BD000080B48BB000AF7860396000231C
:1019DC007B6200233B6248E101227B6A02FA03F33B
:1019EC00FB613B681B68FA691340BB61BA69FB6910
:1019FC009A4240F037813B685B68A34A93425ED0C1
:101A0C00A14A934275D8A14A934258D09F4A934217
:101A1C006FD89F4A934252D09D4A934269D89D4AAF
:101A2C0093424CD09B4A934263D89B4A934246D0F4
:101A3C00994A93425DD8122B2AD8122B59D801A25D
:101A4C0052F823F0CB1A0008A51A0008B71A0008A0
:101A5C00F91A0008FF1A0008FF1A0008FF1A0008FC
:101A6C00FF1A0008FF1A0008FF1A0008FF1A0008E6
:101A7C00FF1A0008FF1A0008FF1A0008FF1A0008D6
:101A8C00FF1A0008FF1A0008AD1A0008C11A000856
:101A9C00824A934213D02CE03B68DB683B6229E01E
:101AAC003B68DB6804333B6224E03B68DB6808334B
:101ABC003B621FE03B68DB680C333B621AE03B681F
:101ACC009B68002B02D104233B6213E03B689B68AC
:101ADC00012B05D108233B627B68FA691A6109E086
:101AEC0008233B627B68FA695A6103E000233B627E
:101AFC0000E000BFBB69FF2B01D87B6801E07B686D
:101B0C0004337B61BB69FF2B02D87B6A9B0002E02C
:101B1C007B6A083B9B003B617B691A680F213B6920
:101B2C0001FA03F3DB431A40396A3B6901FA03F308
:101B3C001A437B691A603B685B6803F08053002B87
:101B4C0000F09080564B9B69554A43F0010393611A
:101B5C00534B9B6903F00103BB60BB68514A7B6A22
:101B6C009B08023352F82330FB607B6A03F00303BB
:101B7C009B000F2202FA03F3DB43FA681340FB606D
:101B8C007B68494A93420DD07B68484A934207D000
:101B9C007B68474A934201D1022304E0032302E00D
:101BAC00012300E000237A6A02F0030292009340C2
:101BBC00FA681343FB603B497B6A9B080233FA6863
:101BCC0041F823203B685B6803F48033002B06D07C
:101BDC00384B1A683749BB6913430B6006E0354B29
:101BEC001A68BB69DB43334913400B603B685B6885
:101BFC0003F40033002B06D02E4B5A682D49BB69D9
:101C0C0013434B6006E02B4B5A68BB69DB432949F5
:101C1C0013404B603B685B6803F48013002B06D0C9
:101C2C00244B9A682349BB6913438B6006E0214B14
:101C3C009A68BB69DB431F4913408B603B685B6848
:101C4C0003F40013002B06D01A4BDA681949BB6950
:101C5C001343CB6006E0174BDA68BB69DB431549CD
:101C6C001340CB607B6A01337B623B681A687B6AEA
:101C7C0022FA03F3002B7FF4AFAE00BF00BF2C376A
:101C8C00BD4680BC704700BF000032100000311010
:101C9C000000221000002110000012100000111092
:101CAC00001002400000014000080140000C0140FF
:101CBC00001001400004014080B485B000AF786092
:101CCC000B467B807B689A687B881340002B02D084
:101CDC000123FB7301E00023FB73FB7B18461437D5
:101CEC00BD4680BC704780B483B000AF78600B46B3
:101CFC007B8013467B707B78002B03D07A887B68C3
:101D0C001A6103E07B881A047B681A6100BF0C37E8
:101D1C00BD4680BC704780B485B000AF78600B4680
:101D2C007B807B68DB68FB607A88FB6813401A0455
:101D3C00FB68D9437B880B401A437B681A6100BF50
:101D4C001437BD4680BC704780B586B000AF786054
:101D5C007B68002B01D101236CE27B681B6803F0CC
:101D6C000103002B00F08780924B5B6803F00C039F
:101D7C00042B0CD08F4B5B6803F00C03082B12D197
:101D8C008C4B5B6803F48033B3F5803F0BD1894BEC
:101D9C001B6803F40033002B6CD07B685B68002B52
:101DAC0068D1012346E27B685B68B3F5803F06D1BE
:101DBC00804B1B687F4A43F4803313602EE07B68B2
:101DCC005B68002B0CD17B4B1B687A4A23F4803365
:101DDC001360784B1B68774A23F4802313601DE053
:101DEC007B685B68B3F5A02F0CD1724B1B68714AF2
:101DFC0043F4802313606F4B1B686E4A43F48033AB
:101E0C0013600BE06B4B1B686A4A23F4803313603E
:101E1C00684B1B68674A23F4802313607B685B68FC
:101E2C00002B13D0FFF7B6FC386108E0FFF7B2FCCB
:101E3C0002463B69D31A642B01D90323FAE15D4BAB
:101E4C001B6803F40033002BF0D014E0FFF7A2FC66
:101E5C00386108E0FFF79EFC02463B69D31A642BFD
:101E6C0001D90323E6E1534B1B6803F40033002B29
:101E7C00F0D100E000BF7B681B6803F00203002B6D
:101E8C0063D04C4B5B6803F00C03002B0BD0494B1D
:101E9C005B6803F00C03082B1CD1464B5B6803F406
:101EAC008033002B16D1434B1B6803F00203002B2D
:101EBC0005D07B681B69012B01D00123BAE13D4B96
:101ECC001B6823F0F8027B685B69DB00394913431C
:101EDC000B603AE07B681B69002B20D0364B01224B
:101EEC001A60FFF757FC386108E0FFF753FC024615
:101EFC003B69D31A022B01D903239BE12D4B1B68A1
:101F0C0003F00203002BF0D02A4B1B6823F0F802DD
:101F1C007B685B69DB00274913430B6015E0264B9C
:101F2C0000221A60FFF736FC386108E0FFF732FC3C
:101F3C0002463B69D31A022B01D903237AE11D4BCC
:101F4C001B6803F00203002BF0D17B681B6803F0C5
:101F5C000803002B3AD07B689B69002B19D0174BD8
:101F6C0001221A60FFF716FC386108E0FFF712FC3B
:101F7C0002463B69D31A022B01D903235AE10D4BBC
:101F8C005B6A03F00203002BF0D0012000F0A6FAEC
:101F9C001CE00A4B00221A60FFF7FCFB38610FE0D3
:101FAC00FFF7F8FB02463B69D31A022B08D903232F
:101FBC0040E100BF00100240000042428004424257
:101FCC009E4B5B6A03F00203002BE9D17B681B6814
:101FDC0003F00403002B00F0A6800023FB75974B45
:101FEC00DB6903F08053002B0DD1944BDB69934AD2
:101FFC0043F08053D361914BDB6903F08053BB609A
:10200C00BB680123FB758E4B1B6803F48073002B9C
:10201C0018D18B4B1B688A4A43F480731360FFF70B
:10202C00B9FB386108E0FFF7B5FB02463B69D31AF0
:10203C00642B01D90323FDE0814B1B6803F48073EF
:10204C00002BF0D07B68DB68012B06D17B4B1B6A25
:10205C007A4A43F0010313622DE07B68DB68002BA6
:10206C000CD1764B1B6A754A23F001031362734B38
:10207C001B6A724A23F0040313621CE07B68DB6862
:10208C00052B0CD16D4B1B6A6C4A43F00403136295
:10209C006A4B1B6A694A43F0010313620BE0674BFE
:1020AC001B6A664A23F001031362644B1B6A634A82
:1020BC0023F0040313627B68DB68002B15D0FFF759
:1020CC0069FB38610AE0FFF765FB02463B69D31AEE
:1020DC0041F28832934201D90323ABE0574B1B6A80
:1020EC0003F00203002BEED014E0FFF753FB386132
:1020FC000AE0FFF74FFB02463B69D31A41F28832E4
:10210C00934201D9032395E04C4B1B6A03F0020365
:10211C00002BEED1FB7D012B05D1484BDB69474AE7
:10212C0023F08053D3617B68DB69002B00F0818046
:10213C00424B5B6803F00C03082B61D07B68DB69B6
:10214C00022B46D13F4B00221A60FFF723FB38616C
:10215C0008E0FFF71FFB02463B69D31A022B01D99B
:10216C00032367E0354B1B6803F00073002BF0D1A1
:10217C007B681B6AB3F5803F08D1304B5B6823F456
:10218C0000327B689B682D4913434B602B4B5B687B
:10219C0023F474127B68196A7B685B6A0B432749CA
:1021AC0013434B60274B01221A60FFF7F3FA386197
:1021BC0008E0FFF7EFFA02463B69D31A022B01D96C
:1021CC00032337E01D4B1B6803F00073002BF0D08A
:1021DC002FE01C4B00221A60FFF7DCFA386108E094
:1021EC00FFF7D8FA02463B69D31A022B01D9032315
:1021FC0020E0124B1B6803F00073002BF0D118E0A9
:10220C007B68DB69012B01D1012313E00B4B5B686D
:10221C00FB60FB6803F480327B681B6A9A4206D130
:10222C00FB6803F470127B685B6A9A4201D001234D
:10223C0000E0002318461837BD4680BD0010024050
:10224C00007000406000424280B584B000AF7860FE
:10225C0039607B68002B01D10123D0E06A4B1B68ED
:10226C0003F007033A689A4210D9674B1B6823F0B6
:10227C00070265493B6813430B60634B1B6803F013
:10228C0007033A689A4201D00123B8E07B681B68C7
:10229C0003F00203002B20D07B681B6803F00403BF
:1022AC00002B05D0594B5B68584A43F4E0635360EC
:1022BC007B681B6803F00803002B05D0534B5B684D
:1022CC00524A43F460535360504B5B6823F0F00266
:1022DC007B689B684D4913434B607B681B6803F01C
:1022EC000103002B40D07B685B68012B07D1474B67
:1022FC001B6803F40033002B15D101237FE07B68AE
:10230C005B68022B07D1414B1B6803F00073002B59
:10231C0009D1012373E03D4B1B6803F00203002B32
:10232C0001D101236BE0394B5B6823F003027B681E
:10233C005B68364913434B60FFF72CFAF8600AE0F0
:10234C00FFF728FA0246FB68D31A41F2883293420F
:10235C0001D9032353E02D4B5B6803F00C027B681F
:10236C005B689B009A42EBD1274B1B6803F0070379
:10237C003A689A4210D2244B1B6823F00702224978
:10238C003B6813430B60204B1B6803F007033A6850
:10239C009A4201D0012332E07B681B6803F00403EE
:1023AC00002B08D0194B5B6823F4E0627B68DB6878
:1023BC00164913434B607B681B6803F00803002B22
:1023CC0009D0124B5B6823F460527B681B69DB00FD
:1023DC000E4913434B6000F021F802460B4B5B682F
:1023EC001B0903F00F030A49CB5C22FA03F3094AD9
:1023FC001360094B1B681846FFF78AF9002318462F
:10240C001037BD4680BD00BF0020024000100240C6
:10241C006C2D0008100000201400002090B48AB02D
:10242C0000AF2A4B3C1D0FCB84E80F0040F2012378
:10243C003B800023FB610023BB6100237B620023F4
:10244C007B6100233B62224B5B68FB61FB6903F001
:10245C000C03042B02D0082B03D02DE01D4B3B6248
:10246C002DE0FB699B0C03F00F0307F128021344CA
:10247C0013F8243C7B61FB6903F48033002B13D0ED
:10248C00134B5B685B0C03F0010307F12802134448
:10249C0013F8283CBB617B690E4A02FB03F2BB6953
:1024AC00B2FBF3F37B6204E07B690B4A02FB03F3A0
:1024BC007B627B6A3B6202E0064B3B6200BF3B6A7D
:1024CC0018462837BD4690BC704700BF5C2D0008ED
:1024DC000010024000127A0000093D0080B485B063
:1024EC0000AF78600A4B1B680A4AA2FB03235B0A05
:1024FC007A6802FB03F3FB6000BFFB685A1EFA60AC
:10250C00002BF9D100BF00BF1437BD4680BC70470B
:10251C0010000020D34D621080B582B000AF7860FF
:10252C007B68002B01D1012341E07B6893F83D309F
:10253C00DBB2002B06D17B68002283F83C20786844
:10254C00FEF788FF7B68022283F83D207B681A68BF
:10255C007B6804331946104600F06AFA7B68012246
:10256C0083F846207B68012283F83E207B68012299
:10257C0083F83F207B68012283F840207B6801228E
:10258C0083F841207B68012283F842207B6801227A
:10259C0083F843207B68012283F844207B68012266
:1025AC0083F845207B68012283F83D2000231846E0
:1025BC000837BD4680BD000080B485B000AF7860A0
:1025CC007B6893F83D30DBB2012B01D0012335E061
:1025DC007B68022283F83D207B681B68DA687B6885
:1025EC001B6842F00102DA607B681B68164A934252
:1025FC0009D07B681B68B3F1804F04D07B681B68E3
:10260C00124A934211D17B681B689B6803F0070345
:10261C00FB60FB68062B10D07B681B681A687B6814
:10262C001B6842F001021A6007E07B681B681A689D
:10263C007B681B6842F001021A60002318461437AD
:10264C00BD4680BC704700BF002C01400004004018
:10265C0080B582B000AF78607B681B681B6903F0A3
:10266C000203022B22D17B681B68DB6803F0020398
:10267C00022B1BD17B681B686FF002021A617B680E
:10268C0001221A777B681B689B6903F00303002BFC
:10269C0003D0786800F0B1F905E0786800F0A4F98F
:1026AC00786800F0B3F97B6800221A777B681B68A6
:1026BC001B6903F00403042B22D17B681B68DB68C5
:1026CC0003F00403042B1BD17B681B686FF004021E
:1026DC001A617B6802221A777B681B689B6903F47A
:1026EC004073002B03D0786800F087F905E0786818
:1026FC0000F07AF9786800F089F97B6800221A7783
:10270C007B681B681B6903F00803082B22D17B68CC
:10271C001B68DB6803F00803082B1BD17B681B6864
:10272C006FF008021A617B6804221A777B681B68B9
:10273C00DB6903F00303002B03D0786800F05DF92C
:10274C0005E0786800F050F9786800F05FF97B6874
:10275C0000221A777B681B681B6903F01003102B8F
:10276C0022D17B681B68DB6803F01003102B1BD194
:10277C007B681B686FF010021A617B6808221A775D
:10278C007B681B68DB6903F44073002B03D078680B
:10279C0000F033F905E0786800F026F9786800F06D
:1027AC0035F97B6800221A777B681B681B6903F07C
:1027BC000103012B0ED17B681B68DB6803F001035E
:1027CC00012B07D17B681B686FF001021A617868D6
:1027DC00FEF750FF7B681B681B6903F08003802B9E
:1027EC000ED17B681B68DB6803F08003802B07D15C
:1027FC007B681B686FF080021A61786800F067FADA
:10280C007B681B681B6903F04003402B0ED17B686F
:10281C001B68DB6803F04003402B07D17B681B6807
:10282C006FF040021A61786800F0F9F87B681B6859
:10283C001B6903F02003202B0ED17B681B68DB681F
:10284C0003F02003202B07D17B681B686FF020025C
:10285C001A61786800F032FA00BF0837BD4680BDB7
:10286C0080B584B000AF786039607B6893F83C30F9
:10287C00012B01D10223B3E07B68012283F83C20B9
:10288C007B68022283F83D207B681B689B68FB6099
:10289C00FB6823F07703FB60FB6823F47F43FB604A
:1028AC007B681B68FA689A603B681B68B3F5005F2D
:1028BC003ED0B3F5005F00F28780B3F5805F00F087
:1028CC008580B3F5805F7FD8702B1AD0702B7BD8A6
:1028DC00602B50D0602B77D8502B3CD0502B73D81A
:1028EC00402B58D0402B6FD8302B64D0302B6BD86A
:1028FC00202B60D0202B67D8002B5CD0102B5AD00B
:10290C0062E07B6818683B6899683B685A683B686A
:10291C00DB6800F05CF97B681B689B68FB60FB68FC
:10292C0043F07703FB607B681B68FA689A604EE0A3
:10293C007B6818683B6899683B685A683B68DB6839
:10294C0000F045F97B681B689A687B681B6842F449
:10295C0080429A603BE07B6818683B6859683B682A
:10296C00DB681A4600F0BCF87B681B6850211846DF
:10297C0000F013F92BE07B6818683B6859683B68DA
:10298C00DB681A4600F0DAF87B681B686021184691
:10299C0000F003F91BE07B6818683B6859683B68DA
:1029AC00DB681A4600F09CF87B681B6840211846CF
:1029BC0000F0F3F80BE07B681A683B681B6819465B
:1029CC00104600F0EAF802E000BF00E000BF7B68B0
:1029DC00012283F83D207B68002283F83C200023F1
:1029EC0018461037BD4680BD80B483B000AF786008
:1029FC0000BF0C37BD4680BC704780B483B000AFBD
:102A0C00786000BF0C37BD4680BC704780B483B083
:102A1C0000AF786000BF0C37BD4680BC704780B4F7
:102A2C0083B000AF786000BF0C37BD4680BC7047E8
:102A3C0080B485B000AF786039607B681B68FB6040
:102A4C007B68254A934207D07B68B3F1804F03D053
:102A5C007B68224A934208D1FB6823F07003FB6029
:102A6C003B685B68FA681343FB607B681A4A9342C5
:102A7C0007D07B68B3F1804F03D07B68174A934231
:102A8C0008D1FB6823F44073FB603B68DB68FA6891
:102A9C001343FB60FB6823F080023B685B691343C4
:102AAC00FB607B68FA681A603B689A687B68DA623C
:102ABC003B681A687B689A627B68074A934203D129
:102ACC003B681A697B681A637B6801225A6100BFF4
:102ADC001437BD4680BC7047002C014000040040F8
:102AEC0080B487B000AFF860B9607A60FB681B6A8D
:102AFC007B61FB681B6A23F00102FB681A62FB68AE
:102B0C009B693B613B6923F0F0033B617B681B01D4
:102B1C003A6913433B617B6923F00A037B617A6951
:102B2C00BB6813437B61FB683A699A61FB687A69FD
:102B3C001A6200BF1C37BD4680BC704780B487B09A
:102B4C0000AFF860B9607A60FB681B6A23F0100272
:102B5C00FB681A62FB689B697B61FB681B6A3B61C3
:102B6C007B6923F470437B617B681B037A69134395
:102B7C007B613B6923F0A0033B61BB681B013A6995
:102B8C0013433B61FB687A699A61FB683A691A6284
:102B9C0000BF1C37BD4680BC704780B485B000AF09
:102BAC00786039607B689B68FB60FB6823F070037E
:102BBC00FB603A68FB68134343F00703FB607B68D8
:102BCC00FA689A6000BF1437BD4680BC704780B469
:102BDC0087B000AFF860B9607A603B60FB689B68B7
:102BEC007B617B6923F47F437B613B681A027B68C2
:102BFC001A43BB6813437A6913437B61FB687A6998
:102C0C009A6000BF1C37BD4680BC704780B485B04D
:102C1C0000AF786039607B6893F83C30012B01D1B0
:102C2C00022341E07B68012283F83C207B6802226E
:102C3C0083F83D207B681B685B68FB607B681B68C6
:102C4C009B68BB60FB6823F07003FB603B681B68F0
:102C5C00FA681343FB607B681B68FA685A607B68F0
:102C6C001B68144A934209D07B681B68B3F1804FF0
:102C7C0004D07B681B68104A93420CD1BB6823F0CC
:102C8C008003BB603B685B68BA681343BB607B68BE
:102C9C001B68BA689A607B68012283F83D207B68C8
:102CAC00002283F83C20002318461437BD4680BC14
:102CBC00704700BF002C01400004004080B483B07A
:102CCC0000AF786000BF0C37BD4680BC704780B445
:102CDC0083B000AF786000BF0C37BD4680BC704736
:102CEC0070B500260C4D0D4C641BA410A64209D1E6
:102CFC0000F022F800260A4D0A4C641BA410A642D0
:102D0C0005D170BD55F8043B98470136EEE755F8F0
:102D1C00043B98470136F2E77C2D00087C2D000817
:102D2C007C2D0008802D000803460244934200D1FC
:102D3C00704703F8011BF9E7F8B500BFF8BC08BCF5
:102D4C009E467047F8B500BFF8BC08BC9E4670475D
:102D5C0002030405060708090A0B0C0D0E0F1010D0
:102D6C00000000000000000001020304060708092F
:042D7C003101000819
:042D80000D01000839
:102D84000100000014000000110000000200000017
:0C2D94000024F40010000000010000000A
:04000005080016A534
:00000001FF
